:020000040000FA
:0400000007EF00F016
:10000800038209ED00F062EF00F00600F3CF01F083
:10001800F4CF02F0800EC46014EF00F016EF00F089
:100028001EEF00F0BD8EC450FF0A080DF3CFBEFFCF
:1000380039EF00F0800EC418D8A425EF00F027EFA0
:1000480000F02BEF00F0000EBE6E39EF00F0800ECE
:10005800C46431EF00F033EF00F039EF00F0BD9EDB
:10006800C450080DF350B00FBE6EC4CF81FF9E9CE4
:10007800C28202C0F4FF01C0F3FF03921100959AF7
:10008800959C959E94949280000E936E000EC46E7B
:100098004C0EBD6E390ECA6E010EC26E0E0EC16ECA
:1000A8001A0EC06EF28EF28C9D8CCB68BE0EBE6EA0
:1000B800CA84C2825EEF00F007EF00F0039003925B
:0600C800000143EF00F00F
:020000040020DA
:08000000FFFFFFFFFFFFFFFF00
:020000040030CA
:0E000000000C191EFF8185FF0FC00FE00F409E
:00000001FF
