:020000040000FA
:0400000041EF3FF09D
:107E820000017AEF3FF083769E9201C0CCFF9EA262
:107E92004DEF3FF04FEF3FF048EF3FF0120083709D
:107EA20001C0D7FF03C0D6FFF294F2A45BEF3FF00C
:107EB2005DEF3FF056EF3FF012009E90837201C0DB
:107EC200CFFF03C0CEFF9EA069EF3FF06BEF3FF004
:107ED20064EF3FF01200A19201C0B3FF03C0B2FFF2
:107EE2008374A1A277EF3FF079EF3FF072EF3FF09A
:107EF200120095909592959495968390839283948F
:107F02008396F28A9D809D82A082000ED56E880E95
:107F1200CD6E000ECA6E040EB16ED58ECD80CA84AF
:107F2200B180F2949E909E92A192F28CF28E8390F6
:107F3200F2A49EEF3FF0A0EF3FF0B4EF3FF0000E4F
:107F4200026EFD0E016E000E046E110E036E50ECF9
:107F52003FF0000E026EF90E016E000E046E290E45
:107F6200036E50EC3FF083929EA0BAEF3FF0BCEF5D
:107F72003FF0CEEF3FF0000E026E0168000E046E7D
:107F82001E0E036E5EEC3FF0000E026E0168000EE4
:107F9200046EDF0E036E5EEC3FF08394A1A2D4EF79
:107FA2003FF0D6EF3FF0E8EF3FF0000E026E0168BF
:107FB200000E046EE10E036E6CEC3FF0000E026EDA
:107FC2000168000E046EEB0E036E6CEC3FF08396BC
:107FD2009EA2EEEF3FF0F0EF3FF098EF3FF0000E81
:107FE200026EFB0E016E44EC3FF0000E026EFE0EBE
:0E7FF200016E44EC3FF098EF3FF000EF00F01E
:020000040020DA
:08000000FFFFFFFFFFFFFFFF00
:020000040030CA
:0E000000000C191EFF8385FF0FC00FE00F409C
:00000001FF
