:020000040000FA
:0400000007EF00F016
:10000800018209ED00F064EF00F00600C2B40FEFC2
:1000180000F011EF00F01DEF00F0C2B616EF00F08F
:1000280018EF00F01DEF00F0C4CF81FFC28443EF4A
:1000380000F0C2A422EF00F024EF00F031EF00F04E
:10004800C2B629EF00F02BEF00F031EF00F0C4CF7B
:1000580082FFC294C28643EF00F0C2B436EF00F0CC
:1000680038EF00F043EF00F0C2A63DEF00F03FEF9D
:1000780000F043EF00F0C4CF83FFC294C2969E9C69
:10008800C28201921100000E936E000E946E000E53
:10009800956E000E816E000E826E000E836E928049
:1000A80092829284010EC26E0C0EC16E120EC06E48
:1000B800F28EF28C9D8CC28260EF00F007EF00F0A8
:0A00C80001900192000147EF00F0E3
:020000040020DA
:08000000FFFFFFFFFFFFFFFF00
:020000040030CA
:0E000000000C191EFF8185FF0FC00FE00F409E
:00000001FF
