:020000040000FA
:0600000000F0C9EF07F05B
:10060000004C36204C37204C38204C39204C3130AF
:1006100000484F4D45204155544F4D4154494F4E90
:10062000004C31204C32204C33204C34204C3500CF
:090630004F4E20004F4646000029
:10063A00FFFFC0EC07F0010E046E010EB2EC06F0EB
:10064A00210E096E060E0A6E22EC07F083B030EF17
:10065A0003F033EF03F0FFFF41EF03F0FFFF010E5A
:10066A00046E020EB2EC06F0340E096E060E0A6E25
:10067A0022EC07F056EF03F0FFFF83A047EF03F0E9
:10068A004AEF03F0FFFF56EF03F0FFFF010E046E7F
:10069A00020EB2EC06F0300E096E060E0A6E22EC5D
:1006AA0007F0FFFF83B25CEF03F05FEF03F0FFFF99
:1006BA006DEF03F0FFFF040E046E020EB2EC06F0BB
:1006CA00340E096E060E0A6E22EC07F082EF03F072
:1006DA00FFFF83A273EF03F076EF03F0FFFF82EFD1
:1006EA0003F0FFFF040E046E020EB2EC06F0300EA9
:1006FA00096E060E0A6E22EC07F0FFFF83B488EF3C
:10070A0003F08BEF03F0FFFF99EF03F0FFFF070EF3
:10071A00046E020EB2EC06F0340E096E060E0A6E74
:10072A0022EC07F0AEEF03F0FFFF83A49FEF03F084
:10073A00A2EF03F0FFFFAEEF03F0FFFF070E046E18
:10074A00020EB2EC06F0300E096E060E0A6E22ECAC
:10075A0007F0FFFF83B6B4EF03F0B7EF03F0FFFF34
:10076A00C5EF03F0FFFF0A0E046E020EB2EC06F0AC
:10077A00340E096E060E0A6E22EC07F0DAEF03F069
:10078A00FFFF83A6CBEF03F0CEEF03F0FFFFDAEF14
:10079A0003F0FFFF0A0E046E020EB2EC06F0300EF2
:1007AA00096E060E0A6E22EC07F0FFFF83B8E0EF2F
:1007BA0003F0E3EF03F0FFFFF1EF03F0FFFF0D0E8D
:1007CA00046E020EB2EC06F0340E096E060E0A6EC4
:1007DA0022EC07F006EF04F0FFFF83A8F7EF03F01F
:1007EA00FAEF03F0FFFF06EF04F0FFFF0D0E046EB1
:1007FA00020EB2EC06F0300E096E060E0A6E22ECFC
:10080A0007F0FFFF55EC07F0010E046E010EB2EC83
:10081A0006F0010E096E060E0A6E22EC07F083BA84
:10082A0019EF04F01CEF04F0FFFF2AEF04F0FFFFBA
:10083A00010E046E020EB2EC06F0340E096E060EBC
:10084A000A6E22EC07F03FEF04F0FFFF83AA30EFB5
:10085A0004F033EF04F0FFFF3FEF04F0FFFF010E57
:10086A00046E020EB2EC06F0300E096E060E0A6E27
:10087A0022EC07F0FFFF83BC45EF04F048EF04F0D9
:10088A00FFFF56EF04F0FFFF040E046E020EB2ECF7
:10089A0006F0340E096E060E0A6E22EC07F06BEFB4
:1008AA0004F0FFFF83AC5CEF04F05FEF04F0FFFF9E
:1008BA006BEF04F0FFFF040E046E020EB2EC06F0BA
:1008CA00300E096E060E0A6E22EC07F0FFFF83BE99
:1008DA0071EF04F074EF04F0FFFF82EF04F0FFFF02
:1008EA00070E046E020EB2EC06F0340E096E060E06
:1008FA000A6E22EC07F097EF04F0FFFF83AE88EF51
:10090A0004F08BEF04F0FFFF97EF04F0FFFF070EF0
:10091A00046E020EB2EC06F0300E096E060E0A6E76
:10092A0022EC07F0FFFF82B29DEF04F0A0EF04F083
:10093A00FFFFAEEF04F0FFFF0A0E046E020EB2ECE8
:10094A0006F0340E096E060E0A6E22EC07F0C3EFAB
:10095A0004F0FFFF82A2B4EF04F0B7EF04F0FFFF48
:10096A00C3EF04F0FFFF0A0E046E020EB2EC06F0AB
:10097A00300E096E060E0A6E22EC07F0FFFF82B4F3
:10098A00C9EF04F0CCEF04F0FFFFDAEF04F0FFFF49
:10099A000D0E046E020EB2EC06F0340E096E060E4F
:1009AA000A6E22EC07F0EFEF04F0FFFF82A4E0EFFB
:1009BA0004F0E3EF04F0FFFFEFEF04F0FFFF0D0E8A
:1009CA00046E020EB2EC06F0300E096E060E0A6EC6
:1009DA0022EC07F0FFFF55EC07F01200FFFFFFFFC4
:1009EA00000E936E000E946E82928294EDEC06F0E5
:1009FA00C0EC07F0010E046E010EB2EC06F0110E07
:100A0A00096E060E0A6E22EC07F0000E956E000EB5
:100A1A00836EB3EC07F0FFFF1DEC03F086EC07F0E2
:100A2A000F6E0F50106E116A310E10181110D8A4E3
:100A3A0021EF05F024EF05F0FFFF36EF05F0FFFF89
:100A4A0083A02AEF05F02EEF05F0FFFF838030EF39
:100A5A0005F0FFFF8390FFFFFFFF1DEC03F010EF8F
:100A6A0005F0FFFF320E10181110D8A43FEF05F061
:100A7A0042EF05F0FFFF51EF05F0FFFF83A248EFB9
:100A8A0005F04CEF05F0FFFF83824EEF05F0FFFF04
:100A9A008392FFFF31EF05F0FFFF330E101811109C
:100AAA00D8A45AEF05F05DEF05F0FFFF6CEF05F0F3
:100ABA00FFFF83A463EF05F067EF05F0FFFF838470
:100ACA0069EF05F0FFFF8394FFFF31EF05F0FFFFA9
:100ADA00340E10181110D8A475EF05F078EF05F050
:100AEA00FFFF87EF05F0FFFF83A67EEF05F082EF99
:100AFA0005F0FFFF838684EF05F0FFFF8396FFFF73
:100B0A0031EF05F0FFFF350E10181110D8A490EF41
:100B1A0005F093EF05F0FFFFA2EF05F0FFFF83A8B2
:100B2A0099EF05F09DEF05F0FFFF83889FEF05F031
:100B3A00FFFF8398FFFF31EF05F0FFFF360E101815
:100B4A001110D8A4ABEF05F0AEEF05F0FFFFBDEF33
:100B5A0005F0FFFF83AAB4EF05F0B8EF05F0FFFF39
:100B6A00838ABAEF05F0FFFF839AFFFF31EF05F0A2
:100B7A00FFFF370E10181110D8A4C6EF05F0C9EF01
:100B8A0005F0FFFFD8EF05F0FFFF83ACCFEF05F0CC
:100B9A00D3EF05F0FFFF838CD5EF05F0FFFF839CB1
:100BAA00FFFF31EF05F0FFFF380E10181110D8A41F
:100BBA00E1EF05F0E4EF05F0FFFFF3EF05F0FFFFCB
:100BCA0083AEEAEF05F0EEEF05F0FFFF838EF0EF5C
:100BDA0005F0FFFF839EFFFF31EF05F0FFFF390E9F
:100BEA0010181110D8A4FCEF05F0FFEF05F0FFFF75
:100BFA000EEF06F0FFFF82A205EF06F009EF06F0FE
:100C0A00FFFF82820BEF06F0FFFF8292FFFF31EFB8
:100C1A0005F0FFFF300E10181110D8A417EF06F0D8
:100C2A001AEF06F0FFFF29EF06F0FFFF82A420EF7C
:100C3A0006F024EF06F0FFFF828426EF06F0FFFF9E
:100C4A008294FFFF31EF05F0FFFF10EF05F001EF8F
:100C5A0000F0FFFF086E08500F0B026E0850F00BF1
:100C6A00036E818003380F0B72EC06F08182820ECC
:100C7A00056E330E046EFFFF81920406D8A00506A6
:100C8A0005BE50EF06F0055009E10404D8A050EF64
:100C9A0006F053EF06F0FFFF40EF06F0FFFF0250A9
:100CAA0072EC06F08182820E076E330E066EFFFF2B
:100CBA0081920606D8A0070607BE6CEF06F0075019
:100CCA0009E10604D8A06CEF06F06FEF06F0FFFF0B
:100CDA005CEF06F0FFFF1200FFFFFFFF016E01A0AD
:100CEA0079EF06F07CEF06F0FFFF80EF06F0FFFFDA
:100CFA00818482EF06F0FFFF8194FFFF01A288EF53
:100D0A0006F08BEF06F0FFFF8FEF06F0FFFF8186FC
:100D1A0091EF06F0FFFF8196FFFF01A497EF06F01F
:100D2A009AEF06F0FFFF9EEF06F0FFFF8188A0EF23
:100D3A0006F0FFFF8198FFFF01A6A6EF06F0A9EFD4
:100D4A0006F0FFFFADEF06F0FFFF818AAFEF06F076
:100D5A00FFFF819AFFFF1200FFFFFFFF056E0504E8
:100D6A00D8A4BAEF06F0BDEF06F0FFFFCFEF06F00A
:100D7A00FFFF04507F0F086E08380F0B066E0850ED
:100D8A000F0B076E0650A0EC07F00750A0EC07F017
:100D9A00EAEF06F0FFFF020E0518D8A4D7EF06F017
:100DAA00DAEF06F0FFFFEAEF06F0FFFF0450BF0F8D
:100DBA00086E08380F0B066E08500F0B076E0650A8
:100DCA00A0EC07F00750A0EC07F0FFFF1200FFFFAE
:100DDA00FFFF000E72EC06F0030EA0EC07F0190EEE
:100DEA00046E5D0EFFFFE82EFDD7042EFBD7030E1F
:100DFA00A0EC07F0360E046E9A0EFFFFE82EFDD720
:100E0A00042EFBD700D0030EA0EC07F0020EA0ECD4
:100E1A0007F0020EA0EC07F0080EA0EC07F0000E97
:100E2A00A0EC07F00C0EA0EC07F0000EA0EC07F007
:100E3A00060EA0EC07F01200FFFFFFFF000E0E6E79
:100E4A00000E0D6E3BEF07F0FFFF0D5009240B6EED
:100E5A000E500A200C6E0BC0F6FF0CC0F7FF0800FC
:100E6A00FFFFF5502EEC06F00D4A0E2AFFFF0D503B
:100E7A0009240B6E0E500A200C6E0BC0F6FF0CC034
:100E8A00F7FF0800FFFFF5500009D8A44FEF07F05D
:100E9A0052EF07F0FFFF29EF07F0FFFF1200FFFFF5
:100EAA00FFFF000E026E000E016EFFFF000E046EC1
:100EBA00000E036EFFFF034A042A04BE6EEF07F01A
:100ECA00E80E035C030E0458D8A06EEF07F071EF2A
:100EDA0007F0FFFF5FEF07F0FFFF014A022A02BE99
:100EEA0080EF07F0BC0E015C020E0258D8A080EF1A
:100EFA0007F083EF07F0FFFF5AEF07F0FFFF12003A
:100F0A00FFFFFFFF9EAA8CEF07F08FEF07F0FFFFAE
:100F1A009DEF07F0FFFFABA295EF07F098EF07F000
:100F2A00FFFF9BEF07F0FFFFAB98AB88FFFFAE50C8
:100F3A00FFFF1200FFFFFFFF036E8190035072EC68
:100F4A0006F08182140E026E7D0EFFFFE82EFDD799
:100F5A00022EFBD700D081921200FFFFFFFF949C64
:100F6A00948E810EAF6EAC84AC98AB8EAB88AC9C81
:100F7A00AB9C1200FFFFFFFF000EA0EC07F0010E72
:100F8A00A0EC07F01200FFFF000EF86E060EF76ED7
:080F9A000001F4EF04F0FFFF79
:020000040020DA
:08000000FFFFFFFFFFFFFFFF00
:020000040030CA
:04000000FF220D0EC0
:0800060081FF0FC00FE00F4065
:00000001FF
