:020000040000FA
:0400000007EF00F016
:10000800018227ED00F074EF00F095908390F28A5A
:100018009D80000ED56E880ECD6EFC0ED76E170E25
:10002800D66EEC0ECF6E770ECE6EF2949E90D58E75
:10003800CD80F28CF28E4AEC00F03CEC00F01FEF21
:1000480000F007EF00F00600F2A42DEF00F02FEF0C
:1000580000F031EF00F066EC00F09EA036EF00F003
:1000680038EF00F03AEF00F058EC00F00192110080
:100078009E90EC0ECF6E770ECE6E83909EA047EFCB
:1000880000F049EF00F042EF00F01200F294FC0E8D
:10009800D76E170ED66E8380F2A455EF00F057EF97
:1000A80000F050EF00F012009E90EC0ECF6E770E2D
:1000B800CE6E83909EA063EF00F065EF00F05EEFD8
:1000C80000F01200F294FC0ED76E170ED66E8380E5
:1000D800F2A471EF00F073EF00F06CEF00F0120083
:0A00E80001900192000109EF00F001
:020000040020DA
:08000000FFFFFFFFFFFFFFFF00
:020000040030CA
:0E000000000C191EFF8385FF0FC00FE00F409C
:00000001FF
