:020000040000FA
:0600000000F02AEF00F001
:10000800FFFF4782F6CF14F0F7CF15F0F8CF16F0C0
:10001800F5CF17F0F2A213EF00F016EF00F0FFFF94
:100028001EEF00F0FFFFF292010E61EC0FF030ECD2
:1000380007F08084FFFF17C0F5FF16C0F8FF15C052
:10004800F7FF14C0F6FF47921100FFFF81EF0FF092
:100600000001000100010001000100504153535757
:100610004F5244204348414E4745440057524F4EA5
:1006200047204D41535445522050574400454E54A5
:100630004552204D41535445522050574400504C90
:100640004541534520524553455420505744004599
:100650004E544552205041535320414741494E008A
:10066000414343455353204752414E54454400456E
:100670004E5445522050415353574F524400454E1B
:10068000544552204E455720504153530041434357
:100690004553532044414E49454400535543434537
:1006A000535346554C4C59005452592041474149E7
:1006B0004E004C415354205452590000FFFF455006
:1006C0004610D8A466EF03F069EF03F0FFFF7AEF5E
:1006D00003F0FFFF800E41EC0FF06F0E206E060E50
:1006E000216E0E0E226EA1EC0EF0C00E41EC0FF04A
:1006F000B7EF03F0FFFF45044610D8A482EF03F0E4
:1007000085EF03F0FFFF99EF03F0FFFF010E41ECCF
:100710000FF0800E41EC0FF04F0E206E060E216E92
:10072000100E226EA1EC0EF0C00E41EC0FF0B7EFF0
:1007300003F0FFFF020E45184610D8A4A2EF03F005
:10074000A5EF03F0FFFFB7EF03F0FFFF010E41EC51
:100750000FF0800E41EC0FF0B20E206E060E216EEF
:10076000080E226EA1EC0EF0C00E41EC0FF0FFFF60
:100770008AEC0BF018C064F019C065F0FFFF8AEC3A
:100780000BF00001645118180AE165511918D8B42A
:10079000CCEF03F0CFEF03F0FFFFBEEF03F0FFFF5E
:1007A0008AEC0BF018C03BF019C03CF02A0E51EC5B
:1007B0000FF0FFFF8AEC0BF03B5018180AE13C5099
:1007C0001918D8B4E6EF03F0E9EF03F0FFFFD9EF13
:1007D00003F0FFFF8AEC0BF018C064F019C065F05D
:1007E000FFFF8AEC0BF00001645118180AE1655113
:1007F0001918D8B4FEEF03F001EF04F0FFFFF0EF9B
:1008000003F0FFFF8AEC0BF018C03DF019C03EF07A
:100810002A0E51EC0FF0FFFF8AEC0BF03D50181838
:100820000AE13E501918D8B418EF04F01BEF04F099
:10083000FFFF0BEF04F0FFFF8AEC0BF018C064F031
:1008400019C065F0FFFF8AEC0BF000016451181825
:100850000AE165511918D8B430EF04F033EF04F011
:10086000FFFF22EF04F0FFFF8AEC0BF018C03FF00F
:1008700019C040F02A0E51EC0FF0FFFF8AEC0BF08C
:100880003F5018180AE140501918D8B44AEF04F044
:100890004DEF04F0FFFF3DEF04F0FFFF8AEC0BF09B
:1008A00018C064F019C065F0FFFF8AEC0BF000017E
:1008B000645118180AE165511918D8B462EF04F0B0
:1008C00065EF04F0FFFF54EF04F0FFFF8AEC0BF03C
:1008D00018C041F019C042F02A0E51EC0FF0FFFF92
:1008E0008AEC0BF0415018180AE142501918D8B49C
:1008F0007CEF04F07FEF04F0FFFF6FEF04F0FFFFE9
:100900008AEC0BF018C064F019C065F0FFFF8AECA8
:100910000BF00001645118180AE165511918D8B498
:1009200094EF04F097EF04F0FFFF86EF04F0FFFF71
:100930008AEC0BF018C043F019C044F02A0E51ECB9
:100940000FF0FFFF8AEC0BF0435018180AE14450F7
:100950001918D8B4AEEF04F0B1EF04F0FFFFA1EF27
:1009600004F0FFFF010E41EC0FF074EC0EF0275085
:100970003B1807E128503C18D8A4C1EF04F0C4EF9D
:1009800004F0FFFF17EF05F0FFFF29503D1807E1C6
:100990002A503E18D8A4CFEF04F0D2EF04F0FFFFA6
:1009A00017EF05F0FFFF2B503F1807E12C504018C0
:1009B000D8A4DDEF04F0E0EF04F0FFFF17EF05F03F
:1009C000FFFF2D50411807E12E504218D8A4EBEF3D
:1009D00004F0EEEF04F0FFFF17EF05F0FFFF2F50DC
:1009E000431807E130504418D8A4F9EF04F0FCEFA5
:1009F00004F0FFFF17EF05F0FFFF80948080800E6A
:100A000041EC0FF0600E206E060E216E0E0E226E6F
:100A1000A1EC0EF0000E466E000E456E0B0E196E28
:100A2000B80E186E0AEC0EF080907DEF05F0FFFF17
:100A300045504610D8A41FEF05F022EF05F0FFFF48
:100A40003AEF05F0FFFF8082800E41EC0FF08D0E33
:100A5000206E060E216E0D0E226EA1EC0EF0FFFF31
:100A6000010E196EF40E186E0AEC0EF0454A462A75
:100A70007DEF05F0FFFF45044610D8A442EF05F0D6
:100A800045EF05F0FFFF54EF05F0FFFF8082800E79
:100A900041EC0FF08D0E206E060E216E0D0E226EB3
:100AA000A1EC0EF02FEF05F0FFFF8084800E41ECEB
:100AB0000FF08D0E206E060E216E0D0E226EA1EC33
:100AC0000EF0010E196EF40E186E0AEC0EF0C00E48
:100AD00041EC0FF03E0E206E060E216E100E226EBF
:100AE000A1EC0EF0010E196EF40E186E0AEC0EF069
:100AF000010E41EC0FF080EC05F0FFFF1200FFFF4C
:100B0000FFFF800E41EC0FF02D0E206E060E216EC1
:100B1000100E226EA1EC0EF0C00E41EC0FF08AEC2C
:100B20000BF018C062F019C063F0FFFF8AEC0BF005
:100B30000001625118180AE163511918D8B4A3EFE3
:100B400005F0A6EF05F0FFFF95EF05F0FFFF8AEC3B
:100B50000BF018C031F019C032F02A0E51EC0FF032
:100B6000FFFF8AEC0BF0315018180AE132501918C7
:100B7000D8B4BDEF05F0C0EF05F0FFFFB0EF05F012
:100B8000FFFF8AEC0BF018C062F019C063F0FFFFA2
:100B90008AEC0BF00001625118180AE16351191830
:100BA000D8B4D5EF05F0D8EF05F0FFFFC7EF05F09B
:100BB000FFFF8AEC0BF018C033F019C034F02A0E96
:100BC00051EC0FF0FFFF8AEC0BF0335018180AE1DC
:100BD00034501918D8B4EFEF05F0F2EF05F0FFFF2D
:100BE000E2EF05F0FFFF8AEC0BF018C062F019C0CD
:100BF00063F0FFFF8AEC0BF00001625118180AE164
:100C000063511918D8B407EF06F00AEF06F0FFFF9A
:100C1000F9EF05F0FFFF8AEC0BF018C035F019C0B2
:100C200036F02A0E51EC0FF0FFFF8AEC0BF0355036
:100C300018180AE136501918D8B421EF06F024EF3D
:100C400006F0FFFF14EF06F0FFFF8AEC0BF018C070
:100C500062F019C063F0FFFF8AEC0BF000016251F3
:100C600018180AE163511918D8B439EF06F03CEFAF
:100C700006F0FFFF2BEF06F0FFFF8AEC0BF018C029
:100C800037F019C038F02A0E51EC0FF0FFFF8AEC54
:100C90000BF0375018180AE138501918D8B453EF30
:100CA00006F056EF06F0FFFF46EF06F0FFFF8AEC76
:100CB0000BF018C062F019C063F0FFFF8AEC0BF074
:100CC0000001625118180AE163511918D8B46BEF8A
:100CD00006F06EEF06F0FFFF5DEF06F0FFFF8AEC17
:100CE0000BF018C039F019C03AF02A0E51EC0FF091
:100CF000FFFF8AEC0BF0395018180AE13A50191826
:100D0000D8B485EF06F088EF06F0FFFF78EF06F025
:100D1000FFFF000E466E000E456E010EF66E0900D6
:100D2000FFFFF550311809E10900FFFFF5503218B7
:100D3000D8A49DEF06F0A0EF06F0FFFF02EF07F04A
:100D4000FFFF030EF66E060EF76E0900FFFFF5506B
:100D5000331809E10900FFFFF5503418D8A4B3EFA8
:100D600006F0B6EF06F0FFFF02EF07F0FFFF050EFB
:100D7000F66E060EF76E0900FFFFF550351809E113
:100D80000900FFFFF5503618D8A4C9EF06F0CCEFE4
:100D900006F0FFFF02EF07F0FFFF070EF66E060EEC
:100DA000F76E0900FFFFF550371809E10900FFFF52
:100DB000F5503818D8A4DFEF06F0E2EF06F0FFFF99
:100DC00002EF07F0FFFF090EF66E060EF76E090040
:100DD000FFFFF550391809E10900FFFFF5503A18F7
:100DE000D8A4F5EF06F0F8EF06F0FFFF02EF07F0EA
:100DF000FFFF8082010E41EC0FF0DBEC08F08092E7
:100E00002DEF07F0FFFF010E41EC0FF08084800E04
:100E100041EC0FF01C0E206E060E216E100E226E9D
:100E2000A1EC0EF0010E196EF40E186E0AEC0EF025
:100E3000C00E41EC0FF0A80E206E060E216E090EBA
:100E4000226EA1EC0EF0010E196EF40E186E0AEC73
:100E50000EF0010E41EC0FF0F282FFFF1200FFFFD7
:100E6000FFFF800E61EC0FF02D0E096E060E0A6E6C
:100E7000100E0B6ECDEC0EF0C00E61EC0FF0CAEC54
:100E80000CF001C012F002C013F0FFFFCAEC0CF02E
:100E9000125001180AE113500218D8B452EF07F0AB
:100EA00055EF07F0FFFF45EF07F0FFFFCAEC0CF02E
:100EB00001C031F002C032F02A0E71EC0FF0FFFFDA
:100EC000CAEC0CF0315001180AE132500218D8B4C3
:100ED0006CEF07F06FEF07F0FFFF5FEF07F0FFFF2A
:100EE000CAEC0CF001C012F002C013F0FFFFCAEC14
:100EF0000CF0125001180AE113500218D8B483EF15
:100F000007F086EF07F0FFFF76EF07F0FFFFCAEC70
:100F10000CF001C033F002C034F02A0E71EC0FF077
:100F2000FFFFCAEC0CF0335001180AE134500218EC
:100F3000D8B49DEF07F0A0EF07F0FFFF90EF07F0A8
:100F4000FFFFCAEC0CF001C012F002C013F0FFFF6B
:100F5000CAEC0CF0125001180AE113500218D8B470
:100F6000B4EF07F0B7EF07F0FFFFA7EF07F0FFFFC1
:100F7000CAEC0CF001C035F002C036F02A0E71EC5C
:100F80000FF0FFFFCAEC0CF0355001180AE13650A3
:100F90000218D8B4CEEF07F0D1EF07F0FFFFC1EF92
:100FA00007F0FFFFCAEC0CF001C012F002C013F012
:100FB000FFFFCAEC0CF0125001180AE1135002189E
:100FC000D8B4E5EF07F0E8EF07F0FFFFD8EF07F040
:100FD000FFFFCAEC0CF001C037F002C038F02A0E57
:100FE00071EC0FF0FFFFCAEC0CF0375001180AE16A
:100FF00038500218D8B4FFEF07F002EF08F0FFFFF7
:10100000F2EF07F0FFFFCAEC0CF001C012F002C0D3
:1010100013F0FFFFCAEC0CF0125001180AE1135054
:101020000218D8B416EF08F019EF08F0FFFF09EF27
:1010300008F0FFFFCAEC0CF001C039F002C03AF032
:101040002A0E71EC0FF0FFFFCAEC0CF039500118BA
:101050000AE13A500218D8B430EF08F033EF08F044
:10106000FFFF23EF08F0FFFF000E466E000E456EF7
:10107000010EF66E0900FFFFF550311809E1090075
:10108000FFFFF5503218D8A448EF08F04BEF08F0F6
:10109000FFFFADEF08F0FFFF030EF66E060EF76ED2
:1010A0000900FFFFF550331809E10900FFFFF55073
:1010B0003418D8A45EEF08F061EF08F0FFFFADEF41
:1010C00008F0FFFF050EF66E060EF76E0900FFFF33
:1010D000F550351809E10900FFFFF5503618D8A47E
:1010E00074EF08F077EF08F0FFFFADEF08F0FFFFB7
:1010F000070EF66E060EF76E0900FFFFF550371863
:1011000009E10900FFFFF5503818D8A48AEF08F06C
:101110008DEF08F0FFFFADEF08F0FFFF090EF66E50
:10112000060EF76E0900FFFFF550391809E10900B6
:10113000FFFFF5503A18D8A4A0EF08F0A3EF08F08D
:10114000FFFFADEF08F0FFFF8082010E61EC0FF0B2
:1011500035EC0AF08092D8EF08F0FFFF010E61EC49
:101160000FF08084800E61EC0FF01C0E096E060EED
:101170000A6E100E0B6ECDEC0EF0010E026EF40E28
:10118000016E3FEC0EF0C00E61EC0FF0A80E096E80
:10119000060E0A6E090E0B6ECDEC0EF0010E026EFD
:1011A000F40E016E3FEC0EF0010E61EC0FF0F282D6
:1011B000FFFF1200FFFFFFFF800E41EC0FF07E0EDD
:1011C000206E060E216E0E0E226EA1EC0EF0C00EE9
:1011D00041EC0FF08AEC0BF018C060F019C061F020
:1011E000FFFF8AEC0BF00001605118180AE1615111
:1011F0001918D8B4FEEF08F001EF09F0FFFFF0EF87
:1012000008F0FFFF8AEC0BF018C03BF019C03CF06F
:10121000000EA96E3BC0A8FF15EC0FF02A0E51EC92
:101220000FF0FFFF8AEC0BF03B5018180AE13C501E
:101230001918D8B41EEF09F021EF09F0FFFF11EFE4
:1012400009F0FFFF8AEC0BF018C060F019C061F0E4
:10125000FFFF8AEC0BF00001605118180AE16151A0
:101260001918D8B436EF09F039EF09F0FFFF28EF6D
:1012700009F0FFFF8AEC0BF018C03DF019C03EF0FA
:10128000010EA96E3DC0A8FF15EC0FF02A0E51EC1F
:101290000FF0FFFF8AEC0BF03D5018180AE13E50AA
:1012A0001918D8B456EF09F059EF09F0FFFF49EFCC
:1012B00009F0FFFF8AEC0BF018C060F019C061F074
:1012C000FFFF8AEC0BF00001605118180AE1615130
:1012D0001918D8B46EEF09F071EF09F0FFFF60EF55
:1012E00009F0FFFF8AEC0BF018C03FF019C040F086
:1012F000020EA96E3FC0A8FF15EC0FF02A0E51ECAC
:101300000FF0FFFF8AEC0BF03F5018180AE1405035
:101310001918D8B48EEF09F091EF09F0FFFF81EFB3
:1013200009F0FFFF8AEC0BF018C060F019C061F003
:10133000FFFF8AEC0BF00001605118180AE16151BF
:101340001918D8B4A6EF09F0A9EF09F0FFFF98EF3C
:1013500009F0FFFF8AEC0BF018C041F019C042F011
:10136000030EA96E41C0A8FF15EC0FF02A0E51EC38
:101370000FF0FFFF8AEC0BF0415018180AE14250C1
:101380001918D8B4C6EF09F0C9EF09F0FFFFB9EF9B
:1013900009F0FFFF8AEC0BF018C060F019C061F093
:1013A000FFFF8AEC0BF00001605118180AE161514F
:1013B0001918D8B4DEEF09F0E1EF09F0FFFFD0EF24
:1013C00009F0FFFF8AEC0BF018C043F019C044F09D
:1013D000040EA96E43C0A8FF15EC0FF02A0E51ECC5
:1013E0000FF0FFFF8AEC0BF0435018180AE144504D
:1013F0001918D8B4FEEF09F001EF0AF0FFFFF1EF82
:1014000009F0FFFFA694010E41EC0FF0800E41ECB5
:101410000FF00B0E206E060E216E100E226EA1EC48
:101420000EF0C00E41EC0FF09B0E206E060E216EEA
:101430000C0E226EA1EC0EF0010E196EF40E186E59
:101440000AEC0EF0010E41EC0FF0800E41EC0FF0B3
:101450006F0E206E060E216E0E0E226EA1EC0EF0A7
:10146000C00E41EC0FF01200FFFFFFFF800E61EC99
:101470000FF07E0E096E060E0A6E0E0E0B6ECDEC90
:101480000EF0C00E61EC0FF0CAEC0CF001C010F0D1
:1014900002C011F0FFFFCAEC0CF0105001180AE175
:1014A00011500218D8B457EF0AF05AEF0AF0FFFFB4
:1014B0004AEF0AF0FFFFCAEC0CF001C03BF002C09B
:1014C0003CF0000EA96E3BC0A8FF2BEC0FF02A0EDB
:1014D00071EC0FF0FFFFCAEC0CF03B5001180AE171
:1014E0003C500218D8B477EF0AF07AEF0AF0FFFF09
:1014F0006AEF0AF0FFFFCAEC0CF001C010F002C066
:1015000011F0FFFFCAEC0CF0105001180AE1115065
:101510000218D8B48EEF0AF091EF0AF0FFFF81EFC6
:101520000AF0FFFFCAEC0CF001C03DF002C03EF033
:10153000010EA96E3DC0A8FF2BEC0FF02A0E71EC36
:101540000FF0FFFFCAEC0CF03D5001180AE13E50CD
:101550000218D8B4AEEF0AF0B1EF0AF0FFFFA1EF26
:101560000AF0FFFFCAEC0CF001C010F002C011F04D
:10157000FFFFCAEC0CF0105001180AE111500218DC
:10158000D8B4C5EF0AF0C8EF0AF0FFFFB8EF0AF0D1
:10159000FFFFCAEC0CF001C03FF002C040F0020EA9
:1015A000A96E3FC0A8FF2BEC0FF02A0E71EC0FF0D4
:1015B000FFFFCAEC0CF03F5001180AE1405002183E
:1015C000D8B4E5EF0AF0E8EF0AF0FFFFD8EF0AF031
:1015D000FFFFCAEC0CF001C010F002C011F0FFFFD9
:1015E000CAEC0CF0105001180AE111500218D8B4DE
:1015F000FCEF0AF0FFEF0AF0FFFFEFEF0AF0FFFF4A
:10160000CAEC0CF001C041F002C042F0030EA96E1A
:1016100041C0A8FF2BEC0FF02A0E71EC0FF0FFFF7A
:10162000CAEC0CF0415001180AE142500218D8B43B
:101630001CEF0BF01FEF0BF0FFFF0FEF0BF0FFFFA6
:10164000CAEC0CF001C010F002C011F0FFFFCAECB0
:101650000CF0105001180AE111500218D8B433EF01
:101660000BF036EF0BF0FFFF26EF0BF0FFFFCAEC9D
:101670000CF001C043F002C044F0040EA96E43C058
:10168000A8FF2BEC0FF02A0E71EC0FF0FFFFCAEC55
:101690000CF0435001180AE144500218D8B453EF3B
:1016A0000BF056EF0BF0FFFF46EF0BF0FFFFA69499
:1016B000010E61EC0FF0800E61EC0FF00B0E096E65
:1016C000060E0A6E100E0B6ECDEC0EF0C00E61EC25
:1016D0000FF09B0E096E060E0A6E0C0E0B6ECDEC13
:1016E0000EF0010E026EF40E016E3FEC0EF0010ED4
:1016F00061EC0FF0800E61EC0FF06F0E096E060EBC
:101700000A6E0E0E0B6ECDEC0EF0C00E61EC0FF0FB
:101710001200FFFFFFFF82808292829482A893EFE3
:101720000BF096EF0BF0FFFFAAEF0BF0FFFFFFFFB0
:1017300082B89DEF0BF0A0EF0BF0FFFF97EF0BF0DF
:10174000FFFF000E196E010E186EC7EF0CF0FFFFC1
:10175000C7EF0CF0FFFF82AAB0EF0BF0B3EF0BF076
:10176000FFFFC4EF0BF0FFFFFFFF82BABAEF0BF0F1
:10177000BDEF0BF0FFFFB4EF0BF0FFFF000E196E93
:10178000040E186EC7EF0CF0FFFF82ACCAEF0BF02F
:10179000CDEF0BF0FFFFDEEF0BF0FFFFFFFF82BC92
:1017A000D4EF0BF0D7EF0BF0FFFFCEEF0BF0FFFF06
:1017B000000E196E070E186EC7EF0CF0FFFF82AE19
:1017C000E4EF0BF0E7EF0BF0FFFFF9EF0BF0FFFF9B
:1017D000FFFF82BEEEEF0BF0F1EF0BF0FFFFE8EF43
:1017E0000BF0FFFFFFFF000E196E000E186EC7EF23
:1017F0000CF0FFFF82908282829482A802EF0CF0AC
:1018000005EF0CF0FFFF16EF0CF0FFFFFFFF82B8B3
:101810000CEF0CF00FEF0CF0FFFF06EF0CF0FFFFEA
:10182000000E196E020E186EC7EF0CF0FFFF82AAB1
:101830001CEF0CF01FEF0CF0FFFF30EF0CF0FFFF80
:10184000FFFF82BA26EF0CF029EF0CF0FFFF20EF2C
:101850000CF0FFFF000E196E050E186EC7EF0CF0AE
:10186000FFFF82AC36EF0CF039EF0CF0FFFF4AEFD0
:101870000CF0FFFFFFFF82BC40EF0CF043EF0CF0D9
:10188000FFFF3AEF0CF0FFFF000E196E080E186E06
:10189000C7EF0CF0FFFF82AE50EF0CF053EF0CF0EF
:1018A000FFFF60EF0CF0FFFFFFFF82BE5AEF0CF06E
:1018B0005DEF0CF0FFFF54EF0CF0FFFFF2EF0BF0C9
:1018C000FFFF82908292828482A869EF0CF06CEF15
:1018D0000CF0FFFF7DEF0CF0FFFFFFFF82B873EF0E
:1018E0000CF076EF0CF0FFFF6DEF0CF0FFFF000E39
:1018F000196E030E186EC7EF0CF0FFFF82AA83EF7C
:101900000CF086EF0CF0FFFF97EF0CF0FFFFFFFFEE
:1019100082BA8DEF0CF090EF0CF0FFFF87EF0CF028
:10192000FFFF000E196E060E186EC7EF0CF0FFFFDA
:1019300082AC9DEF0CF0A0EF0CF0FFFFB1EF0CF0CC
:10194000FFFFFFFF82BCA7EF0CF0AAEF0CF0FFFF38
:10195000A1EF0CF0FFFF000E196E090E186EC7EF15
:101960000CF0FFFF82AEB7EF0CF0BAEF0CF0FFFF08
:10197000A7EF0BF0FFFFFFFF82BEC1EF0CF0C4EF3B
:101980000CF0FFFFBBEF0CF0FFFFF2EF0BF0FFFFDF
:101990001200FFFFFFFF82808292829482A8D3EF21
:1019A0000CF0D6EF0CF0FFFFEAEF0CF0FFFFFFFFAB
:1019B00082B8DDEF0CF0E0EF0CF0FFFFD7EF0CF09A
:1019C000FFFF000E026E010E016E07EF0EF0FFFF2B
:1019D00007EF0EF0FFFF82AAF0EF0CF0F3EF0CF030
:1019E000FFFF04EF0DF0FFFFFFFF82BAFAEF0CF0EC
:1019F000FDEF0CF0FFFFF4EF0CF0FFFF000E026EA6
:101A0000040E016E07EF0EF0FFFF82AC0AEF0DF03F
:101A10000DEF0DF0FFFF1EEF0DF0FFFFFFFF82BC8B
:101A200014EF0DF017EF0DF0FFFF0EEF0DF0FFFFBD
:101A3000000E026E070E016E07EF0EF0FFFF82AE82
:101A400024EF0DF027EF0DF0FFFF39EF0DF0FFFF52
:101A5000FFFF82BE2EEF0DF031EF0DF0FFFF28EFFC
:101A60000DF0FFFFFFFF000E026E000E016E07EF8C
:101A70000EF0FFFF82908282829482A842EF0DF0E6
:101A800045EF0DF0FFFF56EF0DF0FFFFFFFF82B8AF
:101A90004CEF0DF04FEF0DF0FFFF46EF0DF0FFFFA5
:101AA000000E026E020E016E07EF0EF0FFFF82AA1B
:101AB0005CEF0DF05FEF0DF0FFFF70EF0DF0FFFF3B
:101AC000FFFF82BA66EF0DF069EF0DF0FFFF60EFE8
:101AD0000DF0FFFF000E026E050E016E07EF0EF017
:101AE000FFFF82AC76EF0DF079EF0DF0FFFF8AEF8C
:101AF0000DF0FFFFFFFF82BC80EF0DF083EF0DF0D4
:101B0000FFFF7AEF0DF0FFFF000E026E080E016E70
:101B100007EF0EF0FFFF82AE90EF0DF093EF0DF0A8
:101B2000FFFFA0EF0DF0FFFFFFFF82BE9AEF0DF069
:101B30009DEF0DF0FFFF94EF0DF0FFFF32EF0DF082
:101B4000FFFF82908292828482A8A9EF0DF0ACEF11
:101B50000DF0FFFFBDEF0DF0FFFFFFFF82B8B3EF09
:101B60000DF0B6EF0DF0FFFFADEF0DF0FFFF000E33
:101B7000026E030E016E07EF0EF0FFFF82AAC3EFA5
:101B80000DF0C6EF0DF0FFFFD7EF0DF0FFFFFFFFE9
:101B900082BACDEF0DF0D0EF0DF0FFFFC7EF0DF0E3
:101BA000FFFF000E026E060E016E07EF0EF0FFFF44
:101BB00082ACDDEF0DF0E0EF0DF0FFFFF1EF0DF087
:101BC000FFFFFFFF82BCE7EF0DF0EAEF0DF0FFFF34
:101BD000E1EF0DF0FFFF000E026E090E016E07EF40
:101BE0000EF0FFFF82AEF7EF0DF0FAEF0DF0FFFF02
:101BF000E7EF0CF0FFFFFFFF82BE01EF0EF004EFF6
:101C00000EF0FFFFFBEF0DF0FFFF32EF0DF0FFFFD7
:101C10001200FFFFFFFF000E1C6E000E1B6E2BEF6D
:101C20000EF0FFFF000E1E6E000E1D6EFFFF1D4A20
:101C30001E2A1EBE25EF0EF01E500AE14B0E1D5C43
:101C4000D8A025EF0EF028EF0EF0FFFF16EF0EF0F4
:101C5000FFFF1B4A1C2AFFFF18501B5C1C50800A08
:101C60001A6E1950800A1A58D8A039EF0EF03CEFBE
:101C70000EF0FFFF11EF0EF0FFFF1200FFFFFFFF5E
:101C8000000E056E000E046E60EF0EF0FFFF000EFA
:101C9000076E000E066EFFFF064A072A07BE5AEFC0
:101CA0000EF007500AE14B0E065CD8A05AEF0EF07A
:101CB0005DEF0EF0FFFF4BEF0EF0FFFF044A052A29
:101CC000FFFF0150045C0550800A036E0250800A39
:101CD0000358D8A06EEF0EF071EF0EF0FFFF46EF45
:101CE0000EF0FFFF1200FFFFFFFFA680000EA96E9F
:101CF0009FEC0FF018C027F019C028F0010EA96E54
:101D00009FEC0FF018C029F019C02AF0020EA96E3E
:101D10009FEC0FF018C02BF019C02CF0030EA96E29
:101D20009FEC0FF018C02DF019C02EF0040EA96E14
:101D30009FEC0FF018C02FF019C030F0A6901200E1
:101D4000FFFFFFFF000E266E000E256EBAEF0EF0AD
:101D5000FFFF25502024236E26502120246E23C00F
:101D6000F6FF24C0F7FF0800FFFFF55051EC0FF01D
:101D7000254A262AFFFF2250236E246A2350255C21
:101D800024502658D8A0C7EF0EF0CAEF0EF0FFFF80
:101D9000A8EF0EF0FFFF1200FFFFFFFF000E0F6E17
:101DA000000E0E6EE6EF0EF0FFFF0E5009240C6ED3
:101DB0000F500A200D6E0CC0F6FF0DC0F7FF080093
:101DC000FFFFF55071EC0FF00E4A0F2AFFFF0B508A
:101DD0000C6E0D6A0C500E5C0D500F58D8A0F3EF2E
:101DE0000EF0F6EF0EF0FFFFD4EF0EF0FFFF120043
:101DF000FFFFFFFF000E956E070E936EF00E946EC0
:101E0000000E926E000E806E000E826E000E966EB8
:101E100090EC0FF0F288F28EF292FFFF80845EEC7D
:101E200003F00DEF0FF02AEF00F0FFFFA69EA69C37
:101E3000A684550EA76EAA0EA76EA682FFFFA1A8C4
:101E400024EF0FF027EF0FF0FFFF1EEF0FF0FFFF63
:101E5000A1981200FFFFFFFFA69EA69CA684550E28
:101E6000A76EAA0EA76EA682FFFFA1A83AEF0FF0F9
:101E70003DEF0FF0FFFF34EF0FF0FFFFA1981200CE
:101E8000FFFFFFFF1F6E1FC083FF819E819C818A21
:101E9000000E196E140E186E0AEC0EF0819A1200E4
:101EA000FFFFFFFF1F6E1FC083FF818E819C818A11
:101EB000000E196E140E186E0AEC0EF0819A1200C4
:101EC000FFFFFFFF086E08C083FF819E819C818A0F
:101ED000000E026E140E016E3FEC0EF0819A12009D
:101EE000FFFFFFFF086E08C083FF818E819C818AFF
:101EF000000E026E140E016E3FEC0EF0819A12007D
:101F0000FFFF00EE27F0200EEE6AE806FDE14790A5
:101F10004792000EF86E060EF76E0001F9EF0EF014
:101F2000FFFF380E41EC0FF0060E41EC0FF00C0EE7
:101F300041EC0FF0010E41EC0FF01200FFFFFFFF2C
:101F4000A69EA69CA680A8CF18F0196A1200FFFFD3
:021F5000FFFF91
:020000040020DA
:08000000FFFFFFFFFFFFFFFF00
:020000040030CA
:04000000FF220D0EC0
:0800060081FF0FC00FE00F4065
:00000001FF
