:020000040000FA
:04000000C7EF3FF017
:107F8E000001CAEF3FF0000E926E000E936E000ECF
:107F9E00946E000E956E760ED36E550E806E550E47
:107FAE00816E550E826E550E836E000E036E000EA0
:107FBE00026E820E016EDE0EE82EFED7012EFCD76B
:107FCE00024A032A035009E1140E025CD8A0F2EF14
:107FDE003FF0F4EF3FF0E0EF3FF0AA0E806EAA0EF6
:107FEE00816EAA0E826EAA0E836ED4EF3FF000EF62
:027FFE0000F091
:020000040020DA
:08000000FFFFFFFFFFFFFFFF00
:020000040030CA
:0E000000000E191EFF0385FF0FC00FE00F401A
:00000001FF
