:020000040000FA
:100000000A128A11FC2F00308A000408840A820731
:1000100000344C34363420344C34373420344C34AF
:10002000383420344C34393420344C343134303486
:10003000003448344F344D34453420344134553441
:1000400054344F344D344134543449344F344E34A5
:1000500000344C34313420344C34323420344C3479
:10006000333420344C34343420344C34353400347C
:100070004F344E34203400344F3446344634003448
:10077A0000300A128A11F0230A128A1101300A1271
:10078A008A11F0230A128A110800831203138C1E9D
:10079A00CF2BD02BD72B981CD32BD42BD62B18127C
:1007AA0018161A08080083160313071387178130CF
:1007BA009900181518128312031398178316031336
:1007CA009816831203131816831603131813831229
:1007DA00031318130800F300831203130610730897
:1007EA000A128A110A240A128A118312031386141E
:1007FA001A30F200F830F100F10B012CF20B012C47
:10080A0000008312031386100800F000701C0E2CDF
:10081A000F2C132C831203130615162C83120313A1
:10082A000611F01C192C1A2C1C2C86151D2C86114D
:10083A00701D202C212C232C0616242C0612F01DA8
:10084A00272C282C2A2C86162B2C86120800FB0013
:10085A00F901FA01432C79087B0784000A128A11EC
:10086A0003200A128A110A128A1123250A128A11EE
:10087A000130F9070318FA0A0030FA0779087B07EA
:10088A0084000A128A1103200A128A11003A031DEF
:10089A004F2C502C302C0800F001F101F201F30129
:1008AA000130F2070318F30A0030F3077308803A9D
:1008BA00FF0083307F02031D642CE8307202031CA0
:1008CA00672C682C552C0130F0070318F10A003008
:1008DA00F1077108803AFF0082307F02031D772CEE
:1008EA00BC307002031C7A2C7B2C532C0800F600B7
:1008FA007603031D812C822CA52C74087F3EFF00F1
:10090A007F08F9007908F50004300310F50CFF3E62
:10091A00031D8A2C7508FF007F08F70079080F3934
:10092A00FF007F08F80077080A128A11F0230A12DA
:10093A008A1178080A128A11F0230A128A11CD2C18
:10094A0002307606031DAA2CAB2CCD2C7408BF3EB0
:10095A00FF007F08F9007908F50004300310F50C50
:10096A00FF3E031DB32C7508FF007F08F7007908C6
:10097A000F39FF007F08F80077080A128A11F0235E
:10098A000A128A1178080A128A11F0230A128A11A5
:10099A00080000300A128A110A240A128A11033046
:1009AA000A128A11F0230A128A112130F5007630D0
:1009BA00F400F40BDE2CF50BDE2C000003300A12D7
:1009CA008A11F0230A128A114830F5006C30F400BB
:1009DA00F40BED2CF50BED2C000003300A128A11F2
:1009EA00F0230A128A1102300A128A11F0230A121B
:1009FA008A1102300A128A11F0230A128A11083067
:100A0A000A128A11F0230A128A1100300A128A1174
:100A1A00F0230A128A110C300A128A11F0230A12E0
:100A2A008A1100300A128A11F0230A128A1106303A
:100A3A000A128A11F0230A128A110800F4007408B3
:100A4A000F39FF007F08F2007408F039FF007F08B1
:100A5A00F3008312031306147308F1000430031021
:100A6A00F10CFF3E031D342D71080A128A110A2463
:100A7A000A128A118312031386143330F500823066
:100A8A00F600831203138610FF30F5070318F60ADF
:100A9A00FF30F6077608803AFF0080307F02031D98
:100AAA00582D01307502031C5B2D5C2D462D7208F2
:100ABA000A128A110A240A128A118312031386144B
:100ACA003330F7008230F800831203138610FF30A8
:100ADA00F7070318F80AFF30F8077808803AFF008A
:100AEA0080307F02031D7B2D01307702031C7E2D8F
:100AFA007F2D692D0800831603138601870183124F
:100B0A000313871007110A128A11CE240A128A11B6
:100B1A000A128A11BD230A128A11F401F40A013059
:100B2A000A128A117C240A128A1111300A128A11B5
:100B3A002C240A128A1183160313880183120313C1
:100B4A0088010A128A11D8230A128A110A128A11F2
:100B5A002A260A128A110A128A11CA230A128A1129
:100B6A00FC00FD017C0883120313A0007D08A1008C
:100B7A00313020062104031DC32DC42DCC2D013094
:100B8A0088060A128A112A260A128A11AB2D3230D5
:100B9A0020062104031DD22DD32DD62D023088061E
:100BAA00C62D333020062104031DDC2DDD2DE02D5A
:100BBA0004308806C62D343020062104031DE62D94
:100BCA00E72DEA2D08308806C62D35302006210487
:100BDA00031DF02DF12DF42D10308806C62D363068
:100BEA0020062104031DFA2DFB2DFE2D2030880638
:100BFA00C62D373020062104031D042E052E082E8B
:100C0A0040308806C62D383020062104031D0E2EDA
:100C1A000F2E122E80308806C62D39302006210468
:100C2A00031D182E192E1C2E02308706C62D3030B1
:100C3A0020062104031D222E232E262E0430870689
:100C4A00C62DAB2D0A128A1100280A128A11BD2359
:100C5A000A128A11F401F40A01300A128A117C2458
:100C6A000A128A1121300A128A112C240A128A11B4
:100C7A00831203130818422E432E522EF401F40A4B
:100C8A0002300A128A117C240A128A1134300A129A
:100C9A008A112C240A128A11642E081C552E562EEB
:100CAA00642EF401F40A02300A128A117C240A1210
:100CBA008A1130300A128A112C240A128A118312DC
:100CCA0003138818692E6A2E7B2E0430FF007F08D2
:100CDA00F40002300A128A117C240A128A11343072
:100CEA000A128A112C240A128A118F2E881C7E2E2F
:100CFA007F2E8F2E0430FF007F08F40002300A1284
:100D0A008A117C240A128A1130300A128A112C2480
:100D1A000A128A11831203130819942E952EA62EED
:100D2A000730FF007F08F40002300A128A117C247F
:100D3A000A128A1134300A128A112C240A128A11D0
:100D4A00BA2E081DA92EAA2EBA2E0730FF007F0838
:100D5A00F40002300A128A117C240A128A113030F5
:100D6A000A128A112C240A128A118312031388196F
:100D7A00BF2EC02ED12E0A30FF007F08F4000230A9
:100D8A000A128A117C240A128A1134300A128A1130
:100D9A002C240A128A11E52E881DD42ED52EE52E72
:100DAA000A30FF007F08F40002300A128A117C24FC
:100DBA000A128A1130300A128A112C240A128A1154
:100DCA0083120313081AEA2EEB2EFC2E0D30FF00B5
:100DDA007F08F40002300A128A117C240A128A114E
:100DEA0034300A128A112C240A128A11102F081E72
:100DFA00FF2E002F102F0D30FF007F08F400023065
:100E0A000A128A117C240A128A1130300A128A11B3
:100E1A002C240A128A110A128A1151240A128A11DE
:100E2A00F401F40A01300A128A117C240A128A1186
:100E3A0001300A128A112C240A128A11831203130E
:100E4A00881A282F292F382FF401F40A02300A129F
:100E5A008A117C240A128A1134300A128A112C242B
:100E6A000A128A114A2F881E3B2F3C2F4A2FF4015F
:100E7A00F40A02300A128A117C240A128A113030CA
:100E8A000A128A112C240A128A1183120313081BCC
:100E9A004F2F502F612F0430FF007F08F4000230DB
:100EAA000A128A117C240A128A1134300A128A110F
:100EBA002C240A128A11752F081F642F652F752F8B
:100ECA000430FF007F08F40002300A128A117C24E1
:100EDA000A128A1130300A128A112C240A128A1133
:100EEA0083120313881B7A2F7B2F8C2F0730FF0066
:100EFA007F08F40002300A128A117C240A128A112D
:100F0A0034300A128A112C240A128A11A02F881F3F
:100F1A008F2F902FA02F0730FF007F08F400023098
:100F2A000A128A117C240A128A1130300A128A1192
:100F3A002C240A128A11831203138718A52FA62FAD
:100F4A00B72F0A30FF007F08F40002300A128A1114
:100F5A007C240A128A1134300A128A112C240A12A9
:100F6A008A11CB2F871CBA2FBB2FCB2F0A30FF0039
:100F7A007F08F40002300A128A117C240A128A11AC
:100F8A0030300A128A112C240A128A11831203138E
:100F9A000719D02FD12FE22F0D30FF007F08F40060
:100FAA0002300A128A117C240A128A1134300A1277
:100FBA008A112C240A128A11F62F071DE52FE62F13
:100FCA00F62F0D30FF007F08F40002300A128A1152
:100FDA007C240A128A1130300A128A112C240A122D
:100FEA008A110A128A1151240A128A1108008301ED
:060FFA000A128A11802D8D
:00000001FF
