:020000040000FA
:040000004AEF3EF095
:107C940000EE01F00E0EEE6AE806FDE1000189EF48
:107CA4003EF00F501102F3CF13F0F4CF14F00F5045
:107CB4001202F350142610501102F350142613C06C
:107CC4000FF014C010F0120081BC6BEF3EF06DEFAA
:107CD4003EF071EF3EF0000EBE6E88EF3EF081BEC6
:107CE40076EF3EF078EF3EF07EEF3EF0BD9E0F5013
:107CF4000F24BE6E88EF3EF081AE83EF3EF085EF39
:107D04003EF088EF3EF0BD8E79EF3EF01200C00EDB
:107D1400936EF00E946E000E956E000E926E000E31
:107D2400806E4C0EBD6E000ECA6EC30ECB6EC80EB6
:107D3400BE6ECA84000E806E000E106E000E0F6EB2
:107D440066EC3EF008EC3FF00FC001F010C002F00A
:107D540001C00BF002C00CF008EC3FF00B500F1800
:107D640009E10C501018D8B4BAEF3EF0BCEF3EF065
:107D7400AEEF3EF008EC3FF00FC003F010C004F08B
:107D840003C00FF004C010F0000E126E0A0E116E44
:107D940053EC3EF00FC009F010C00AF009500B2458
:107DA4000D6E0A500C200E6E08EC3FF009500F18AF
:107DB40009E10A501018D8B4E2EF3EF0E4EF3EF0C7
:107DC400D6EF3EF008EC3FF00FC005F010C006F00F
:107DD40005C007F006C008F0075009240F6E0850CC
:107DE4000A20106E66EC3EF008EC3FF007500F18C6
:107DF40009E108501018D8B402EF3FF004EF3FF047
:107E0400F6EF3EF0A4EF3EF000EF00F082808292A5
:107E1400819482A810EF3FF012EF3FF021EF3FF082
:107E240082B817EF3FF019EF3FF012EF3FF0000E6A
:107E3400106E010E0F6EFFEF3FF0FFEF3FF082AACE
:107E440026EF3FF028EF3FF035EF3FF082BA2DEFF9
:107E54003FF02FEF3FF028EF3FF0000E106E040EBE
:107E64000F6EFFEF3FF082AC3AEF3FF03CEF3FF094
:107E740049EF3FF082BC41EF3FF043EF3FF03CEF6E
:107E84003FF0000E106E070E0F6EFFEF3FF082AE54
:107E94004EEF3FF050EF3FF05DEF3FF082BE55EF05
:107EA4003FF057EF3FF050EF3FF0000E106E0A0E18
:107EB4000F6EFFEF3FF082908282819482A865EF7B
:107EC4003FF067EF3FF074EF3FF082B86CEF3FF0A4
:107ED4006EEF3FF067EF3FF0000E106E020E0F6E74
:107EE400FFEF3FF082AA79EF3FF07BEF3FF088EF9E
:107EF4003FF082BA80EF3FF082EF3FF07BEF3FF03C
:107F0400000E106E050E0F6EFFEF3FF082AC8DEF8A
:107F14003FF08FEF3FF09CEF3FF082BC94EF3FF0D7
:107F240096EF3FF08FEF3FF0000E106E080E0F6ECD
:107F3400FFEF3FF082AEA1EF3FF0A3EF3FF0B0EFD1
:107F44003FF082BEA8EF3FF0AAEF3FF0A3EF3FF06F
:107F5400000E106E000E0F6EFFEF3FF082908292C3
:107F6400818482A8B8EF3FF0BAEF3FF0C7EF3FF04B
:107F740082B8BFEF3FF0C1EF3FF0BAEF3FF0000E21
:107F8400106E030E0F6EFFEF3FF082AACCEF3FF0AE
:107F9400CEEF3FF0DBEF3FF082BAD3EF3FF0D5EF07
:107FA4003FF0CEEF3FF0000E106E060E0F6EFFEFA7
:107FB4003FF082ACE0EF3FF0E2EF3FF0EFEF3FF055
:107FC40082BCE7EF3FF0E9EF3FF0E2EF3FF0000E55
:107FD400106E090E0F6EFFEF3FF082AEF4EF3FF02C
:107FE400F6EF3FF01FEF3FF082BEFBEF3FF0FDEFF7
:0C7FF4003FF0F6EF3FF0AAEF3FF0120064
:020000040020DA
:08000000FFFFFFFFFFFFFFFF00
:020000040030CA
:0E000000000C191EFF8385FF0FC00FE00F409C
:00000001FF
