:020000040000FA
:0400000007EF00F016
:1000080007822EED00F052EF00F0000E046E000E95
:10001800036E22EF00F0000E066E000E056E054A14
:10002800062A065009E1640E055CD8A01EEF00F010
:1000380020EF00F013EF00F0034A042A0150035C9C
:1000480002500458D8A02BEF00F02DEF00F00FEF6E
:1000580000F012000600F2A234EF00F036EF00F0D4
:1000680044EF00F0838A030E026EE80E016E09EC7D
:1000780000F0839A030E026EE80E016E09EC00F0A0
:10008800F292079211009380959AF288F19CF2926D
:10009800F28CF28E4EEF00F007EF00F00790079217
:0600A800000147EF00F02B
:020000040020DA
:08000000FFFFFFFFFFFFFFFF00
:020000040030CA
:0E000000000C191EFF8385FF0FC00FE00F409C
:00000001FF
