:020000040000FA
:040000005CEF3FF082
:107E8200300008C081FF849484928480000E026EC8
:107E9200020E016E6DEC3FF08490120008C081FF6B
:107EA200848484928480000E026E020E016E6DEC58
:107EB2003FF084901200820EF66E7E0EF76E000E78
:107EC200F86E0900F5CF0CF00900F5CF0DF00B6A42
:107ED2000A6A000199EF3FF0000E056E000E046E73
:107EE20089EF3FF0000E076E000E066E064A072A63
:107EF20007BE85EF3FF0075009E1870E065CD8A068
:107F020085EF3FF087EF3FF077EF3FF0044A052A15
:107F12000150045C0550800A036E0250800A035827
:107F2200D8A096EF3FF098EF3FF073EF3FF01200CA
:107F3200AB8EAC98AC84000E956EAB88190EAF6E0A
:107F42000F0EC16E000E936E000E966E8490000EA0
:107F5200026E320E016E6DEC3FF0000E096E380EAD
:107F6200086E42EC3FF0000E026E050E016E6DECE3
:107F72003FF0000E096E0E0E086E42EC3FF0000E4E
:107F8200026E050E016E6DEC3FF0000E096E010EE1
:107F9200086E42EC3FF0000E026E050E016E6DECB3
:107FA2003FF0000E096E060E086E42EC3FF0000E26
:107FB200026E050E016E6DEC3FF0000E096E800E32
:107FC200086E42EC3FF0000E026E050E016E6DEC83
:107FD2003FF09EAAEFEF3FF0F1EF3FF0EAEF3FF004
:107FE200AECF08F0096A4FEC3FF0000E026E020EAF
:0E7FF200016E6DEC3FF0EAEF3FF000EF00F0A3
:020000040020DA
:08000000FFFFFFFFFFFFFFFF00
:020000040030CA
:0E000000000C191EFF8385FF0FC00FE00F409C
:00000001FF
