:1000000004EF01F00000000000EF00F0000000002D
:0A0010000000000000000000F3D71C
:10001C000F0E0C6E470E0D6E0D2EFED70C2EFCD750
:06002C00000000001200BC
:06003200000000001200B6
:0A003800210E0D6E0D2EFED71200F2
:1000420047BE02D0819601D0818647BC02D08194FE
:1000520001D0818447BA02D0819201D0818247B80F
:1000620002D0819001D0818040B002D0818801D03D
:100072008198818ADDDF819A47B602D0819601D0CC
:10008200818647B402D0819401D0818447B202D0E4
:10009200819201D0818247B002D0819001D08180CB
:1000A20040B002D0818801D08198818AC1DF819AD3
:0C00B20040A002D0B2DF01D0BEDF12007F
:0C00BE00409046C047F0BEDF40801200BA
:1000CA00939A93989390939293949396819A819802
:1000DA0081968194819281909CDF9BDF9ADF818255
:1000EA008180818AA1DF819A94DF818A9DDF819A4A
:1000FA0090DF818A99DF819A8CDF8190818A94DFEF
:10010A00819A87DF818A90DF819A81928186818AAA
:10011A008BDF819A7EDF81968180818A85DF819A51
:10012A008190818A81DF819A74DF818A7DDF819A59
:10013A008180818A79DF819A6CDF8190818A74DF7C
:10014A00819A8186818481828180818A6DDF819A08
:06015A0060DF408012008E
:100160000900F5CFE6FF0006FBE10106F9E1120008
:10017000060E0B6E130E0C6EAD0E0D6E0D2EFED711
:0E0180000C2EFCD70B2EFAD700000000120048
:10018E000FD0800E416E19D0C00E416E16D0940E57
:10019E00416E13D0D40E416E10D0800E416E0DD034
:1001AE004150010AEEE04150020AEEE04150030ACE
:1001BE00EEE04150040AEEE0F0D74204006E4150EA
:1001CE00002600C041F000C047F034DF4090456A81
:1001DE0045504324E96E000E4420EA6EEE520BE0C9
:1001EE0045504324E96E000E4420EA6EEECF46F0F1
:0A01FE005FDF452AEDD740801200B4
:1002080084EC01F0936A5DDF010E476E16DF0C0E79
:10021800476E13DF010E416E060E426E2E0E436EC0
:10022800000E446EB0DF020E416E060E426E260EC0
:10023800436E000E446EA7DF150E0B6E4B0E0C6E50
:10024800BE0E0D6E0D2EFED70C2EFCD70B2EFAD738
:100258000000010E476EF1DE010E416E010E426E86
:10026800150E436E000E446E8EDF020E416E050EB3
:10027800426E360E436E000E446E85DF150E0B6E11
:100288004B0E0C6EBE0E0D6E0D2EFED70C2EFCD72F
:100298000B2EFAD700003F6A040E3F5C06E21C0EE4
:1002A800476ECBDE61DF3F2AF7D73F6A080E3F5C17
:1002B80006E2180E476EC1DE57DF3F2AF7D73F6ABE
:1002C800080E3F5C06E21C0E476EB7DE4DDF3F2A84
:0602D800F7D7EBD7FFD7BA
:1003080010EE15F02A0E006E010E016EDE0EF66E6E
:0E031800020EF76E000EF86EB0EC00F0120050
:1002DE006D696B726F456C656B74726F6E696B6175
:0102EE00000F
:0802EF006578616D706C65001B
:0802F7004C6364346269740079
:0902FF0045617379504943360052
:020000040030CA
:0E000000000B191EFF0381FF0FC00FE00F4021
:00000001FF
