:020000000329D2
:0E000600213083120313FD00FD0B07280800B4
:100014000F3083120313FC004730FD00FD0B102842
:0A002400FC0B10280000000008008B
:06002E00000000000800C4
:1000340083120313C11B2028081121280815411B12
:100044002528881126288815C11A2A2808122B2841
:100054000816411A2F28881230288816391834288F
:10006400081435280810081717200813C1193C284C
:1000740008113D280815411941288811422888157E
:10008400C118462808124728081641184B28881218
:100094004C288816391850280814512808100817B5
:1000A40017200813391C58280A205928032008004F
:0E00B400831203133B088A003A0882000800FA
:1000C2008312031339104008C1001A2039140800A2
:1000D20083160313081308108812081288110811D6
:1000E20083120813081008118811081288120A20B6
:1000F2000A200A20081688160817172008130A2053
:100102000817172008130A200817172008130A20B7
:1001120088120817172008130A2008171720081337
:10012200081208150817172008130A200811881644
:1001320008171720081388120817172008130A2017
:1001420008171720081388160817172008130A2003
:10015200881208171720081308158815081688161C
:0C0162000817172008130A2039140800A1
:10016E00C928803083120313BC00DC28C030BC00C9
:10017E00DC289430BC00DC28D430BC00DC28803075
:10018E00BC00DC28831203133C08013A0319B8287B
:10019E003C08023A0319BD283C08033A0319C0284B
:1001AE003C08043A0319C328C6283D03F0003C0856
:1001BE00F0077008BC007008C1001A203910BF018A
:1001CE003F083E07840000080319F5283F083E0744
:1001DE0084000008C0006120BF0AE7283914080017
:1001EE005A208A110A128000840ABA0A0319BB0A1D
:0801FE00F003031DF7280800BF
:10020600653083120313A0006C30A1006530A20094
:100216006330A3007430A4007230A5006F30A600CE
:100226005330A7006F30A8006D30A9006530AA00D2
:10023600AB014430AC006530AD007630AE006530C1
:10024600AF006C30B0006F30B1007030B200653076
:10025600B3006430B4002030B5004230B6007930C7
:10026600B700B80169200130C1001A200C30C10066
:100276001A201030831686008801831288100130F8
:10028600BC000130BD002C30BE00B7200230BC00DF
:100296000130BD002030BE00B7201F30FB0071309A
:1002A600FC001E30FD00FD0B5629FC0B5629FB0BEE
:1002B600562900000130C1001A2010309000622932
:02400E000A2F77
:00000001FF
