:020000040000FA
:0400000007EF00F016
:10000800038209ED00F039EF00F0060083969EA206
:1000180010EF00F012EF00F01EEF00F0000E026E7D
:10002800FE0E016E2DEC00F0000E026EFB0E016E4E
:100038002DEC00F003921100959683969D82000E98
:10004800CA6ECA849E92F28CF28E29EF00F007EFF6
:1000580000F083769E9201C0CCFF9EA236EF00F09E
:1000680038EF00F031EF00F0120003900392000126
:0400780020EF00F085
:020000040020DA
:08000000FFFFFFFFFFFFFFFF00
:020000040030CA
:0E000000000C191EFF8385FF0FC00FE00F409C
:00000001FF
