:020000040000FA
:10000000926A936A946A956A966A806A816A826A39
:10001000836A846A010E806E9DEC00F0020E806E91
:100020009DEC00F0040E806E9DEC00F0080E806EDA
:100030009DEC00F0100E806E9DEC00F0200E806EA6
:100040009DEC00F0400E806E9DEC00F0800E806E06
:100050009DEC00F0806A010E816E9DEC00F0020EB6
:10006000816E9DEC00F0040E816E9DEC00F0080E98
:10007000816E9DEC00F0100E816E9DEC00F0200E64
:10008000816E9DEC00F0400E816E9DEC00F0800EC4
:10009000816E9DEC00F0816A010E826E9DEC00F095
:1000A000020E826E9DEC00F0040E826E9DEC00F05C
:1000B000080E826E9DEC00F0100E826E9DEC00F03A
:1000C000200E826E9DEC00F0400E826E9DEC00F0E2
:1000D000800E826E9DEC00F0826A010E836E9DECB4
:1000E00000F0020E836E9DEC00F0040E836E9DEC1A
:1000F00000F0080E836E9DEC00F0100E836E9DECF8
:1001000000F0200E836E9DEC00F0400E836E9DEC9F
:1001100000F0800E836E9DEC00F0836A010E846E09
:100120009DEC00F0020E846E9DEC00F0040E846ED7
:100130009DEC00F0846A0AEF00F0080E036E300EAA
:10014000026E7D0E016E012EA3EF00F0022EA1EFD4
:0A01500000F0032E9FEF00F01200F4
:02015A000000A3
:020000040030CA
:0100000000FF
:010001000CF2
:0100020019E4
:010003001EDE
:010005008179
:010006008574
:010008000FE8
:01000900C036
:01000A000FE6
:01000B00E014
:01000C000FE4
:01000D0040B2
:00000001FF
