:020000040000FA
:0400000007EF00F016
:10000800018224ED00F03FEF00F0949294949280E6
:1000180092820C0EBD6E0C0EBA6E000ECA6E010EE8
:10002800C26E0D0EC16E120EC06EF28EF28C9D8CD9
:10003800F90ECB6ECA84C28220EF00F007EF00F001
:100048000600C2A42AEF00F02CEF00F031EF00F018
:10005800C294C4CFBEFF3BEF00F0C2B436EF00F04D
:1000680038EF00F03BEF00F0C284C4CFBBFF9E9C8A
:10007800C2820192110001900192000109EF00F083
:020000040020DA
:08000000FFFFFFFFFFFFFFFF00
:020000040030CA
:0E000000000C191EFF8185FF0FC00FE00F409E
:00000001FF
