:020000040000FA
:0400000007EF00F016
:100008000E8209ED00F0DCEF01F006009EAC0FEF68
:1000180000F011EF00F073EF00F09E9CC4CF0CF0DD
:100028000CC001F0026A000E046E640E036EFCEC54
:1000380000F00150096E0950300F096E0CC001F034
:10004800026A000E046E640E036E5EEC01F001504D
:100058000C6E0CC001F0026A000E046E0A0E036EEC
:10006800FCEC00F001500A6E0A50300F0A6E0CC00A
:1000780001F0026A000E046E0A0E036E5EEC01F0D7
:1000880001500B6E0B50300F0B6E9E9809C0ADFFE0
:100098009EA851EF00F053EF00F04CEF00F09E984F
:1000A8000AC0ADFF9EA85BEF00F05DEF00F056EFD1
:1000B80000F09E980BC0ADFF9EA865EF00F067EFBB
:1000C80000F060EF00F09E980D0EAD6E9EA86FEFE9
:1000D80000F071EF00F06AEF00F09E98C282F2A47F
:1000E80078EF00F07AEF00F0FAEF00F0CECF0DF0E5
:1000F8000DC001F0026A000E046E050E036EFCECE2
:1001080000F001500D6E0DC001F0026A000E046E81
:10011800640E036EFCEC00F00150096E0950300FBC
:10012800096E0DC001F0026A000E046E640E036EC3
:100138005EEC01F001500D6E0DC001F0026A000E78
:10014800046E0A0E036EFCEC00F001500A6E0A50B1
:10015800300F0A6E0DC001F0026A000E046E0A0E1E
:10016800036E5EEC01F001500B6E0B50300F0B6EFE
:100178000D0EAD6E9EA8C3EF00F0C5EF00F0BEEF08
:1001880000F09E980D0EAD6E9EA8CDEF00F0CFEF5B
:1001980000F0C8EF00F09E9809C0ADFF9EA8D7EF09
:1001A80000F0D9EF00F0D2EF00F09E980AC0ADFF42
:1001B8009EA8E1EF00F0E3EF00F0DCEF00F09E987E
:1001C8000BC0ADFF9EA8EBEF00F0EDEF00F0E6EFFF
:1001D80000F09E980D0EAD6E9EA8F5EF00F0F7EFBB
:1001E80000F0F0EF00F09E98F8EF00F00E9211008A
:1001F800000E066E04BE05EF01F003EF01F00BEFF1
:1002080001F0036C041ED8B0042A010E066E02BE6B
:1002180012EF01F010EF01F018EF01F0016C021E6F
:10022800D8B0022A010E061A000E086E000E076EDC
:1002380003500410D8B423EF01F025EF01F04DEF7F
:1002480001F0010E056E2DEF01F0D890033604364B
:10025800052A04AE32EF01F034EF01F029EF01F086
:10026800D890073608360350015C04500258D8A0CD
:1002780040EF01F042EF01F047EF01F00350015E5B
:100288000450025A0780D89004320332052E34EF06
:1002980001F00650D8B453EF01F055EF01F059EFD3
:1002A80001F0076C081ED8B0082A07C001F008C082
:1002B80002F01200000E066E02BE67EF01F065EF55
:1002C80001F06DEF01F0016C021ED8B0022A010E98
:1002D800066E04BE74EF01F072EF01F078EF01F0E2
:1002E800036C041ED8B0042A03500410D8B47FEF5E
:1002F80001F081EF01F0A5EF01F0010E056E89EF25
:1003080001F0D89003360436052A04AE8EEF01F0CA
:1003180090EF01F085EF01F00350015C04500258A2
:10032800D8A099EF01F09BEF01F09FEF01F0035087
:10033800015E0450025AD89004320332052E90EF21
:1003480001F00650D8B4ABEF01F0ADEF01F0B1EF1A
:1003580001F0016C021ED8B0022A01C001F002C0EF
:1003680002F012009280010EC26E0D0EC16E120EC6
:10037800C06E060ED56E820ECD6E670ED76E6A0EF3
:10038800D66E000ECF6E000ECE6EF28EF28CF28A12
:100398009D8CAB8EAC8AAC98AC84AB88190EAF6ED2
:1003A8009E98CD80D58EC282D8EF01F007EF00F07D
:1003B8000D6A0C6A0B6A0A6A096A0E900E920001AD
:0403C800B6EF01F09B
:020000040020DA
:08000000FFFFFFFFFFFFFFFF00
:020000040030CA
:0E000000000C191EFF8385FF0FC00FE00F409C
:00000001FF
