:020000040000FA
:0400000007EF00F016
:10000800058209ED00F0C8EF00F006008390F2A425
:1000180010EF00F012EF00F026EF00F0000E026E75
:10002800FD0E016E000E046E110E036EAEEC00F0B4
:10003800000E026EF90E016E000E046E290E036E9C
:10004800AEEC00F083929EA02CEF00F02EEF00F0B3
:1000580040EF00F0000E026E0168000E046E1E0EE6
:10006800036EA0EC00F0000E026E0168000E046E34
:10007800DF0E036EA0EC00F08394A1A246EF00F01F
:1000880048EF00F05AEF00F0000E026E0168000E13
:10009800046EE10E036E92EC00F0000E026E016831
:1000A800000E046EEB0E036E92EC00F083969EA297
:1000B80060EF00F062EF00F06EEF00F0000E026EED
:1000C800FB0E016EBCEC00F0000E026EFE0E016E1F
:1000D800BCEC00F005921100959095929594959638
:1000E8008390839283948396F28A9D809D82A082D6
:1000F800000ED56E880ECD6E000ECA6E040EB16E5F
:10010800D58ECD80CA84B180F2949E909E92A192A1
:10011800F28CF28E8EEF00F007EF00F0A19201C092
:10012800B3FF03C0B2FF8374A1A29DEF00F09FEF5D
:1001380000F098EF00F012009E90837201C0CFFF8C
:1001480003C0CEFF9EA0ABEF00F0ADEF00F0A6EF2E
:1001580000F01200837001C0D7FF03C0D6FFF294ED
:10016800F2A4B9EF00F0BBEF00F0B4EF00F012001A
:1001780083769E9201C0CCFF9EA2C5EF00F0C7EF28
:1001880000F0C0EF00F0120005900592000170EF3A
:0201980000F075
:020000040020DA
:08000000FFFFFFFFFFFFFFFF00
:020000040030CA
:0E000000000C191EFF8385FF0FC00FE00F409C
:00000001FF
