:020000040000FA
:0400000007EF00F016
:1000080005826EED00F07BEF00F0C4501F0FC46E48
:100018007A0EC46012EF00F014EF00F020EF00F049
:10002800BD9EC450FA08016ED8900134026ED89073
:100038000234BE6E4AEF00F07A0EC418D8A427EF37
:1000480000F029EF00F02DEF00F0000EBE6E4AEF31
:1000580000F07A0EC46433EF00F035EF00F04AEF99
:1000680000F0B90EC4643BEF00F03DEF00F03FEF45
:1000780000F0B90EC46EC450050FC46EBD8EC450D6
:10008800040DF350FC0FBE6EC4CF81FF9E9CC2824C
:100098001200928092849286000E936E9494959AA0
:1000A800959C959E000EC46E4C0EBD6E000ECA6ED9
:1000B800010EC26E0E0EC16E1A0EC06ECA84CB68D7
:1000C800BE0EBE6EF28EF28C9D8CC2826AEF00F07C
:1000D80007EF00F00600F3CF03F0F4CF04F009ECCB
:1000E80000F004C0F4FF03C0F3FF0592110005906F
:0800F800059200014DEF00F03C
:020000040020DA
:08000000FFFFFFFFFFFFFFFF00
:020000040030CA
:0E000000000C191EFF8385FF0FC00FE00F409C
:00000001FF
