:020000040000FA
:0400000001EF08F014
:10080000004C36204C37204C38204C39204C3130AD
:1008100000484F4D45204155544F4D4154494F4E8E
:10082000004C31204C32204C33204C34204C3500CD
:090830004F4E20004F4646000027
:10083A0008EC08F0010E046E010EEDEC06F0210E34
:10084A00096E080E0A6E80EC07F083B02FEF04F0F1
:10085A0031EF04F03EEF04F0010E046E020EEDECEF
:10086A0006F0340E096E080E0A6E80EC07F050EF9F
:10087A0004F083A043EF04F045EF04F050EF04F0D6
:10088A00010E046E020EEDEC06F0300E096E080E33
:10089A000A6E80EC07F083B255EF04F057EF04F0CC
:1008AA0064EF04F0040E046E020EEDEC06F0340E52
:1008BA00096E080E0A6E80EC07F076EF04F083A248
:1008CA0069EF04F06BEF04F076EF04F0040E046EA7
:1008DA00020EEDEC06F0300E096E080E0A6E80EC80
:1008EA0007F083B47BEF04F07DEF04F08AEF04F0A5
:1008FA00070E046E020EEDEC06F0340E096E080EB9
:10090A000A6E80EC07F09CEF04F083A48FEF04F0EA
:10091A0091EF04F09CEF04F0070E046E020EEDEC6A
:10092A0006F0300E096E080E0A6E80EC07F083B6E8
:10093A00A1EF04F0A3EF04F0B0EF04F00A0E046E86
:10094A00020EEDEC06F0340E096E080E0A6E80EC0B
:10095A0007F0C2EF04F083A6B5EF04F0B7EF04F096
:10096A00C2EF04F00A0E046E020EEDEC06F0300E31
:10097A00096E080E0A6E80EC07F083B8C7EF04F020
:10098A00C9EF04F0D6EF04F00D0E046E020EEDEC82
:10099A0006F0340E096E080E0A6E80EC07F0E8EFD6
:1009AA0004F083A8DBEF04F0DDEF04F0E8EF04F0D5
:1009BA000D0E046E020EEDEC06F0300E096E080EF6
:1009CA000A6E80EC07F0ABEC07F0010E046E010E24
:1009DA00EDEC06F0010E096E080E0A6E80EC07F0C7
:1009EA0083BAFAEF04F0FCEF04F009EF05F0010E08
:1009FA00046E020EEDEC06F0340E096E080E0A6E55
:100A0A0080EC07F01BEF05F083AA0EEF05F010EF5C
:100A1A0005F01BEF05F0010E046E020EEDEC06F078
:100A2A00300E096E080E0A6E80EC07F083BC20EFC8
:100A3A0005F022EF05F02FEF05F0040E046E020E0A
:100A4A00EDEC06F0340E096E080E0A6E80EC07F023
:100A5A0041EF05F083AC34EF05F036EF05F041EFD6
:100A6A0005F0040E046E020EEDEC06F0300E096E6F
:100A7A00080E0A6E80EC07F083BE46EF05F048EFD9
:100A8A0005F055EF05F0070E046E020EEDEC06F0C8
:100A9A00340E096E080E0A6E80EC07F067EF05F057
:100AAA0083AE5AEF05F05CEF05F067EF05F0070E2D
:100ABA00046E020EEDEC06F0300E096E080E0A6E98
:100ACA0080EC07F082B26CEF05F06EEF05F07BEF79
:100ADA0005F00A0E046E020EEDEC06F0340E096EF5
:100AEA00080E0A6E80EC07F08DEF05F082A280EF07
:100AFA0005F082EF05F08DEF05F00A0E046E020E86
:100B0A00EDEC06F0300E096E080E0A6E80EC07F066
:100B1A0082B492EF05F094EF05F0A1EF05F00D0E07
:100B2A00046E020EEDEC06F0340E096E080E0A6E23
:100B3A0080EC07F0B3EF05F082A4A6EF05F0A8EF6A
:100B4A0005F0B3EF05F00D0E046E020EEDEC06F0A3
:100B5A00300E096E080E0A6E80EC07F0ABEC07F057
:100B6A001200000E936E000E946E8292829420EC14
:100B7A0007F008EC08F0010E046E010EEDEC06F029
:100B8A00110E096E080E0A6E80EC07F0000E956EC3
:100B9A00000E836EF6EC07F01DEC04F0D4EC07F0BF
:100BAA000F6E0F50106E116A310E10181110D8A462
:100BBA00E1EF05F0E3EF05F0F0EF05F083A0E8EFD1
:100BCA0005F0EBEF05F08380ECEF05F083901DEC68
:100BDA0004F0D1EF05F0320E10181110D8A4F8EF76
:100BEA0005F0FAEF05F005EF06F083A2FFEF05F036
:100BFA0002EF06F0838203EF06F08392ECEF05F032
:100C0A00330E10181110D8A40DEF06F00FEF06F0EE
:100C1A001AEF06F083A414EF06F017EF06F08384A8
:100C2A0018EF06F08394ECEF05F0340E101811104B
:100C3A00D8A422EF06F024EF06F02FEF06F083A6E1
:100C4A0029EF06F02CEF06F083862DEF06F0839647
:100C5A00ECEF05F0350E10181110D8A437EF06F096
:100C6A0039EF06F044EF06F083A83EEF06F041EFB5
:100C7A0006F0838842EF06F08398ECEF05F0360E13
:100C8A0010181110D8A44CEF06F04EEF06F059EFE9
:100C9A0006F083AA53EF06F056EF06F0838A57EF61
:100CAA0006F0839AECEF05F0370E10181110D8A44D
:100CBA0061EF06F063EF06F06EEF06F083AC68EFC3
:100CCA0006F06BEF06F0838C6CEF06F0839CECEF7A
:100CDA0005F0380E10181110D8A476EF06F078EF48
:100CEA0006F083EF06F083AE7DEF06F080EF06F0A4
:100CFA00838E81EF06F0839EECEF05F0390E101813
:100D0A001110D8A48BEF06F08DEF06F098EF06F0DD
:100D1A0082A292EF06F095EF06F0828296EF06F035
:100D2A008292ECEF05F0300E10181110D8A4A0EF43
:100D3A0006F0A2EF06F0ADEF06F082A4A7EF06F0E8
:100D4A00AAEF06F08284ABEF06F08294ECEF05F08E
:100D5A00D1EF05F000EF00F0086E08500F0B026E9D
:100D6A000850F00B036E818003380F0B52EC07F02A
:100D7A008182820E056E330E046E81920406D8A01B
:100D8A00050605BED1EF06F0055008E10404D8A017
:100D9A00D1EF06F0D3EF06F0C2EF06F0025052ECA4
:100DAA0007F08182820E076E330E066E8192060666
:100DBA00D8A0070607BEEAEF06F0075008E10604C6
:100DCA00D8A0EAEF06F0ECEF06F0DBEF06F012002F
:100DDA00056E0504D8A4F4EF06F0F6EF06F007EF67
:100DEA0007F004507F0F086E08380F0B066E085084
:100DFA000F0B076E0650E6EC07F00750E6EC07F01B
:100E0A001FEF07F0020E0518D8A40EEF07F010EF37
:100E1A0007F01FEF07F00450BF0F086E08380F0BDA
:100E2A00066E08500F0B076E0650E6EC07F00750E7
:100E3A00E6EC07F01200000E52EC07F0030EE6ECA7
:100E4A0007F0210E046E760EE82EFED7042EFCD78C
:100E5A0000D0030EE6EC07F0480E046E6C0EE82E86
:100E6A00FED7042EFCD700D0030EE6EC07F0020EE4
:100E7A00E6EC07F0020EE6EC07F0080EE6EC07F0E7
:100E8A00000EE6EC07F00C0EE6EC07F0000EE6ECBE
:100E9A0007F0060EE6EC07F01200016E01A058EF0B
:100EAA0007F05AEF07F05DEF07F081845EEF07F075
:100EBA00819401A263EF07F065EF07F068EF07F08E
:100ECA00818669EF07F0819601A46EEF07F070EF53
:100EDA0007F073EF07F0818874EF07F0819801A695
:100EEA0079EF07F07BEF07F07EEF07F0818A7FEF5B
:100EFA0007F0819A1200000E0E6E000E0D6E96EF2C
:100F0A0007F00D5009240B6E0E500A200C6E0BC010
:100F1A00F6FF0CC0F7FF0800F550B1EC06F00D4AD9
:100F2A000E2A0D5009240B6E0E500A200C6E0BC0AF
:100F3A00F6FF0CC0F7FF0800F5500009D8A4A8EF87
:100F4A0007F0AAEF07F086EF07F01200000E026E14
:100F5A00000E016E000E046E000E036E034A042A90
:100F6A0004BEC1EF07F0E80E035C030E0458D8A0D4
:100F7A00C1EF07F0C3EF07F0B3EF07F0014A022A07
:100F8A0002BED1EF07F0BC0E015C020E0258D8A0D7
:100F9A00D1EF07F0D3EF07F0AFEF07F012009EAAE8
:100FAA00D9EF07F0DBEF07F0E5EF07F0ABA2E0EFD0
:100FBA0007F0E2EF07F0E4EF07F0AB98AB88AE502A
:100FCA001200036E8190035052EC07F081821A0ED0
:100FDA00026EF80EE82EFED7022EFCD700D08192C0
:100FEA001200949C948E810EAF6EAC84AC98AB8E3A
:100FFA00AB88AC9CAB9C1200000EF86E080EF76E24
:10100A000001B6EF05F0000EE6EC07F0010EE6EC83
:04101A0007F01200C9
:020000040020DA
:08000000FFFFFFFFFFFFFFFF00
:020000040030CA
:0E000000000C191EFF8385FF0FC00FE00F409C
:00000001FF
